:020000040000FA
:100000000A128A110E280134FE00030EF0000A08BD
:10001000F1007F08F2000A128A11B02B0A128A112D
:1000200011280A128A1103200A128A11FA00831376
:100030002030840044300A128A15F024F801F901B6
:1000400083010A128A11372DF700831203133B082C
:10005000803AFF0080307F02031D302811303A02C1
:10006000031C6528FF30F70083120313B601B701A4
:10007000B801B901F801F901AC01AD01AA01AB0168
:100080007730C4008430C5008030C6000A128A155B
:100090007D250A128A11093083120313C4008530AA
:1000A000C500C030C6000A128A157D250A128A11C1
:1000B000993083120313C4008430C500D030C600C9
:1000C0000A128A157D250A128A11770A0319FD285A
:1000D0002A3077060319FD28233077060319FD28F7
:1000E0000130F8070318F90A0030F9077908803A57
:1000F000FF0080307F02031D7F2803307802031841
:100100009D28831203133708F4003608F3000A30E1
:10011000F5000030F6000A128A1556250A128A11D7
:100120007708730783120313B600003003180130F9
:100130007407B700AA01AB01D0287908803AFF0004
:1001400080307F02031DA62803307802031CD028CC
:100150007908803AFF0080307F02031DB128053006
:1001600078020318D028831203133908F4003808E2
:10017000F3000A30F5000030F6000A128A15562501
:100180000A128A117708730783120313B80000302C
:10019000031801307407B9000130AA000030AB0029
:1001A0007908803AFF0080307F02031DD928023091
:1001B00078020318E02883120313AA01AB01432934
:1001C0007908803AFF0080307F02031DE928023061
:1001D0007802031C43297908803AFF0080307F02AF
:1001E000031DF428053078020318432901308312D7
:1001F0000313AA000030AB0043292A307706031D01
:1002000032297908803AFF0080307F02031D0A29D5
:10021000033078020318132983120313B601B701C0
:10022000F801F90143297908803AFF0080307F0204
:10023000031D1C2903307802031C43297908803AE6
:10024000FF0080307F02031D272905307802031844
:10025000432983120313B801B9010230F8000030BA
:10026000F900432923307706031D43290A128A1512
:10027000EA240A128A118312031312150715063095
:10028000BC000030BD000A30F3000030F4008312DF
:1002900003133708F6003608F5000A128A1195276D
:1002A0000A128A117308303E83120313C1000A3008
:1002B000C8000030C9003708CB003608CA000A124F
:1002C0008A1548260A128A11831203134808303E01
:1002D000C200C3010A30F3000030F4003908F60010
:1002E0003808F5000A128A1195270A128A11730834
:1002F000303E83120313BE000A30C8000030C9002C
:100300003908CB003808CA000A128A1548260A1292
:100310008A11831203134808303EBF00C001013028
:10032000AE070318AF0A0030AF071A302E062F04AD
:10033000031DC129AE01AF012C082D04031DA22904
:100340000130A3290030CE00CF014E08AC004F0889
:10035000AD003E30C4000030C500C630C6000A12F1
:100360008A157D250A128A11413083120313C400B5
:100370000030C500C930C6000A128A157D250A1250
:100380008A11831203132C082D0403190800DC2999
:100390000E30C4008430C500C930C6000A128A1568
:1003A0007D2508000E30C4008430C500C630C6006C
:1003B0000A128A157D2508002B08003A0319E12945
:1003C000E9292A08003A0319C829013A0319D22950
:1003D000E929080083120313D20014303A063B04C3
:1003E000031D2B2AFF30D200A401A501A601A701FD
:1003F000A201A301A801A9016630C4008430C50090
:100400008030C6000A128A157D250A128A118C30A6
:1004100083120313CE00DF300A128A150E250A124A
:100420008A11FD3083120313C4008430C500C0302C
:10043000C6000A128A157D250A128A119930831284
:100440000313C4008430C500D030C6000A128A15D8
:100450007D250A128A1183120313520A0319632A93
:100460002A3052060319632A233052060319632ADD
:100470000130A4070318A50A0030A5072508803A13
:10048000FF0080307F02031D472A04302402031836
:100490002A2B831203132308F4002208F3000A30E6
:1004A000F5000030F6000A128A1556250A128A1144
:1004B0008312031352087307A2000030031801309F
:1004C0007407A3002A2B2A305206031D6C2AA401AC
:1004D000A501A201A3012A2B23305206031D2A2BBA
:1004E0000A128A15EA240A128A11831203132308B6
:1004F000803AFF0080307F02031D802AFB302202F9
:10050000031CA82ABA3083120313C4008430C50028
:10051000C030C6000A128A157D250A128A1183127C
:1005200003138714333083120313D100BB30D00080
:10053000DF30CF00CF0B9A2AD00B9A2AD10B9A2A00
:100540008312031387100A128A15EA240130080067
:10055000C93083120313C4008430C5008030C60044
:100560000A128A157D250A128A11B43083120313E8
:10057000B6000030B70012150715F130C400843002
:10058000C5009030C6000A128A157D250A128A110C
:1005900083120313360837040319282B9B30CE002F
:1005A0006430F3000030F4003708F6003608F50038
:1005B0000A128A1195270A128A117308303E0A120C
:1005C0008A150E250A128A119C3083120313CE005D
:1005D0000A30C8000030C9000A30F3000030F400CF
:1005E0003708F6003608F5000A128A1195270A1214
:1005F0008A11740883120313CB007308CA000A120D
:100600008A1548260A128A11831203134808303EBD
:100610000A128A150E250A128A119D3083120313BD
:10062000CE000A30C8000030C9003708CB003608B9
:10063000CA000A128A1548260A128A118312031365
:100640004808303E0A128A150E250A128A11C82A55
:1006500000300800013083120313A8070318A90A09
:100660000030A9071A3028062904031D9F2BA80172
:10067000A90126082704031D3F2B0130402B003021
:10068000CF00D0014F08A6005008A700C830CE0008
:100690006430F3000030F4002308F6002208F5006F
:1006A0000A128A1195270A128A117308303E0A121B
:1006B0008A150E250A128A11C93083120313CE003F
:1006C0000A30C8000030C9000A30F3000030F400DE
:1006D0002308F6002208F5000A128A1195270A124B
:1006E0008A11740883120313CB007308CA000A121C
:1006F0008A1548260A128A11831203134808303ECD
:100700000A128A150E250A128A11CA30831203139F
:10071000CE000A30C8000030C9002308CB002208F0
:10072000CA000A128A1548260A128A118312031374
:100730004808303E0A128A150E250A128A118312C1
:100740000313260827040319AE2B0D30C400843090
:10075000C500C830C6000A128A157D251130080070
:10076000831203138C1CF72B0130A0070318A10A76
:100770000030A107E2302006043003192106031DD2
:10078000F42BA001A1013708803AFF0080307F02DE
:10079000031DCC2B01303602031CD72BFF308312F4
:1007A0000313B6070318B70AFF30B707F42B8312F9
:1007B000031336083704031DF42B3908803AFF0071
:1007C00080307F02031DE62B01303802031CF42B1E
:1007D000FF3083120313B8070318B90AFF30B907B3
:1007E0003B30B6000030B700831203138C10720840
:1007F000FF0071088A00700E8300FE0E7E0E090055
:10080000203436342E34533474346F3470342034FE
:100810002034203420342034203420342034203438
:100820000034203435342E3450346134753473340C
:1008300065342034203420342034203420342034D3
:10084000203400342034203450346F34773465340D
:10085000723469346E34673420344F344E3420346B
:10086000203420340034203450346F3477346534ED
:10087000723420343D3420343934303430345734F9
:100880002034203420340034203434342E34533493
:1008900074346134723474342F34523465347334A4
:1008A00075346D3465342034003420344D3469346B
:1008B000633472346F347734613476346534203481
:1008C0004F34763465346E34203400345334453438
:1008D00054342034543445344D3450342E34203480
:1008E0002834203420344334203429340034533421
:1008F000453454342034543449344D344534203450
:1009000028344D344D343A3453345334293400347C
:1009100044346F346F34723420345334743461345B
:100920007434753473343A344F34503445344E345F
:1009300000342A343A3443344C344534413452344C
:100940002034203423343A3445344E34543445343E
:100950005234003443346F346F346B3469346E3442
:1009600067342034543469346D346534203455345C
:1009700050340034203449346E34763461346C346D
:10098000693464342034543465346D3470342E3416
:100990000034203420345034723465342D344834DB
:1009A00065346134743469346E34673400345034DF
:1009B0006C346534613473346534203443346C34BE
:1009C0006F3473346534003433342E3443346F342D
:1009D0006E34763465346334743469346F346E3411
:1009E0000034543469346D34653420345234653401
:1009F0006D342E343D3420340034543445344D3479
:100A0000503420343A3420342034303430343034CC
:100A10000034543449344D3445342D34203430348A
:100A200030343A343034303400342034543449349F
:100A30004D34453420343D342034203400343234B5
:100A40002E344734723469346C346C3400343134AD
:100A50002E344D346934633472346F34003434349A
:100A60002E345334743461347234743400340A12C2
:100A70008A153A250A128A110A128A1595260A122F
:100A80008A110A128A15EA240A128A110130831285
:100A90000313BC000030BD0001300A128A151F2567
:100AA0000A128A1183120313D90002303C063D0456
:100AB0000319162E03303C063D040319162E04308C
:100AC0003C063D040319162E5903031D972D0230D1
:100AD000BC000030BD001130BA000030BB00F30193
:100AE0000C300A128A1513260A128A110A128A1564
:100AF000EA240A128A11333083120313C4008430AB
:100B0000C500C030C6000A128A157D250A128A1156
:100B10004D3083120313D8001930D7004F30D60060
:100B2000D60B902DD70B902DD80B902D112E023077
:100B30005906031DA82D0A128A15EA240A128A11E1
:100B4000033083120313BC000030BD001230B82DF7
:100B500003305906031DBC2D0A128A15EA240A1215
:100B60008A11043083120313BC000030BD0014301E
:100B7000BA000030BB00162E04305906031D002EAB
:100B80003C033D04031DCE2DB801B9011E30B60053
:100B90000030B700121507150630052E06303C064A
:100BA0003D04031DF72D36081E3EB6003708031816
:100BB000013E003EB7003708803AFF0080307F02D8
:100BC000031DE42D3C303602031C162E0130831227
:100BD0000313B8070318B90A0030B9073608C43E32
:100BE000B60037080318013EFF3EB700162E083046
:100BF0003C063D04031D162E121507150530052E63
:100C000005305906031D092E0830BC000030BD0018
:100C1000162E06305906031D162E0730BC00003074
:100C2000BD000A128A15EA240A128A1183120313DC
:100C300059080A128A1102270A128A114C2D0A1227
:100C40008A15E0250A128A11153083120313C40095
:100C50008530C5008030C6000A128A157D250A122B
:100C60008A110A30F3000030F400831203133908AC
:100C7000F6003808F5000A128A1195270A128A111F
:100C80007308303E83120313BE000A30C8000030E0
:100C9000C9003908CB003808CA000A128A1548264C
:100CA0000A128A11831203134808303EBF00C001A4
:100CB0003E30C4000030C5008930C6000A128A15D3
:100CC0007D250A128A118B3083120313CE003A302D
:100CD0000A128A150E250A128A110A30F300003012
:100CE000F400831203133708F6003608F5000A12E1
:100CF0008A1195270A128A117308303E8312031352
:100D0000C1000A30C8000030C9003708CB003608DF
:100D1000CA000A128A1548260A128A11831203137E
:100D20004808303EC200C3014130C4000030C50055
:100D30008C30C6000A128A157D250A128A114430A9
:100D400083120313C4008430C500C030C6000A12E9
:100D50008A157D250A128A11113083120313C400EB
:100D60008430C5009030C6000A128A157D250A120B
:100D70008A11003083120313C4008430C500D030C0
:100D8000C6000A128A157D250A128A1183120313DE
:100D900038083904031D080036083704031D08000D
:100DA000121107110A128A15EA240A128A11AA30AE
:100DB00083120313C4008430C500C030C6000A1279
:100DC0008A157D250A128A11831203138714333082
:100DD00083120313D100BB30D000DF30CF00CF0B24
:100DE000EF2ED00BEF2ED10BEF2E831203138710B3
:100DF0000A128A15EA24013083120313BC00003062
:100E0000BD00080083120313D5006B2F0A128A1548
:100E1000AD250A128A118A2F0A128A111F260A1278
:100E20008A118A2F55080A128A1124200A128A115F
:100E30008A2F55080A128A1124200A128A118A2F31
:100E400030083104031D582F55080A128A11EA216F
:100E50000A128A1183120313D300D4015308B40079
:100E60005408B50034033504031D3C2F0130B20093
:100E70000030B3001430512F34083504031D552FB2
:100E800012110130B2000030B3000130B000003068
:100E9000B1000A128A15EA240A128A111330831249
:100EA0000313BA000030BB008A2FB201B3018A2FAE
:100EB000B201B30155080A128A1124200A128A11BC
:100EC0008A2F121107118A2F121107110130BC004D
:100ED0000030BD008A2F3D08003A0319702F8A2F79
:100EE0003C08013A0319062F033A0319122F013A5D
:100EF0000319192F073A0319202F013A03190C2F50
:100F0000033A03190C2F013A0319642F0F3A0319FE
:100F1000612F8A2F8312031332083304031D080044
:100F20000F30BA000030BB00080083120313C50164
:100F3000F41FA12FF309F409F30A0319F40AC501F8
:100F4000C50AF61FAC2FF509F609F50A0319F60ACA
:100F50000130FF007F08C506C601C701730874048D
:100F60000319E32FC401C40AF41BC22F013003107C
:100F7000F30DF40DFF3E031DB72F0130FF007F0876
:100F8000C407B42F01300310C60DC70DFF3E031D6B
:100F9000C32F74087602031DCF2F73087502031C3C
:100FA000D82F7308F5027408031CF603F6024614E2
:100FB00001300310F40CF30CFF3E031DD92F013058
:100FC000C402031DC22F45080319EB2FC609C70928
:100FD000C60A0319C70A4708F4004608F3000800C8
:100FE000831603130608073886000808F0398800BE
:100FF0008113831203138815081588140814080038
:10100000FF1B0A2883137F1883170008840A03191B
:10101000FF0A08007F087F398A000408840A031940
:04102000FF0A820041
:1019D400F30101300A128A151326080064008001FD
:1019E400840A0406031900340406F12C8316031335
:1019F4008801091189100A128A1503270800831225
:101A0400031312149214FA308316031392008C14E5
:101A14008312031312110800F700F3018312031356
:101A24004E080A128A1513260A128A15F301F30ABC
:101A340077080A128A1513260800F5000A128A1577
:101A440074270A128A15F600750803192E2D302DF5
:101A54007A080319332DFA0176080800760A031D63
:101A64002A2D760A031D382DFA01FA0AFF300800E0
:101A74000A128A15F8240A128A150A128A11F02702
:101A84000A128A150A128A15012583160313871070
:101A9400831203138710831603130711831203138E
:101AA40007110B178B17080083120313C401C50118
:101AB400731C642D750883120313C4070318C50A25
:101AC4007608C50701300310F50DF60DFF3E031D22
:101AD400652D01300310F40CF30CFF3E031D6C2D37
:101AE40073087404031D5A2D831203134508F4006C
:101AF4004408F3000800F3018312031346080A1292
:101B04008A1513260A128A15831203134508FF0047
:101B1400440884000A128A1500200A128A15003A21
:101B240003190800F301F30A4508FF004408840080
:101B34000A128A1500200A128A150A128A15132617
:101B44000A128A15013083120313C4070318C50A45
:101B54000030C507862D273083120313C400853057
:101B6400C5008030C6000A128A157D250A128A151E
:101B74001F3083120313C4008530C500C030C60073
:101B84000A128A157D250A128A15E430831203137A
:101B9400C4008430C5009030C6000A128A157D2521
:101BA4000A128A152F3083120313C4008530C5002E
:101BB400D030C6000A128A157D250800831203134B
:101BC40086190D2E8714071112110A128A15EA2498
:101BD4000A128A15883083120313C4008430C500A6
:101BE400C030C6000A128A157D250A128A15D7301C
:101BF40083120313C4008430C5009030C6000A1257
:101C04008A157D250A128A1583120313861D062E52
:101C14000A128A15EA248312031312158710071572
:101C24000800F600731C1A2E8312031309151D2EC7
:101C34008312031309117608F03988008914A63039
:101C4400F400F40B232E000083120313891076088A
:101C54000F39F40003300310F40DFF3E031D2D2E45
:101C64000310740D88008914A630F400F40B382E88
:101C740000008312031389101B30F5009E30F4001A
:101C8400F40B422EF50B422E0000080083120313BE
:101C9400CD01CB1F542ECA09CB09CA0A0319CB0A9A
:101CA400CD01CD0AC91F5B2EC809C909C80A031989
:101CB400C90A480849040319882ECC01CC0AC91B57
:101CC4006F2E01300310C80DC90DFF3E031D642E95
:101CD4000130FF007F08CC07612E49084B02031D29
:101CE400752E48084A02031C7D2E4808CA0249087A
:101CF400031CCB03CB0201300310C90CC80CFF3EFC
:101D0400031D7E2E0130CC02031D6F2E4D080319D6
:101D1400902ECA09CB09CA0A0319CB0A4B08C90079
:101D24004A08C800080083120313D201D3018312A6
:101D340003135208803ECE00FF300A128A150E2586
:101D44000A128A15013083120313D2070318D30A27
:101D54000030D3075308803AFF0080307F02031D10
:101D6400B52E10305202031C992E22308312031315
:101D7400C4008430C500C030C6000A128A157D250F
:101D84000A128A15553083120313C4008430C50027
:101D94009030C6000A128A157D250A128A1583120C
:101DA4000313D401D501831203135408D03ECE008B
:101DB400FF300A128A150E250A128A150130831281
:101DC4000313D4070318D50A0030D5075508803A01
:101DD400FF0080307F02031DF12E10305402031CDB
:101DE400D52E273083120313D1000D30D0002530B7
:101DF400CF00CF0BFB2ED00BFB2ED10BFB2E022FD3
:101E04000800C33083120313C500CC30C400C40BD4
:101E1400092FC50B092F0000F30130300A128A156F
:101E240013260A128A151B3083120313C5009D3032
:101E3400C400C40B1B2FC50B1B2F202FF301303004
:101E44000A128A1513260A128A15A530831203135F
:101E5400C400C40B2B2F2E2FF30130300A128A1525
:101E640013260A128A15362F372F0000F301023089
:101E74000A128A1513260A128A15A530831203132F
:101E8400C400C40B432F462FF30128300A128A15CD
:101E940013260A128A15A53083120313C400C40B37
:101EA400512F542FF30101300A128A1513260A12F6
:101EB4008A15043083120313C5003D30C400C40BDB
:101EC400612FC50B612FF3010C300A128A151326FA
:101ED4000A128A15A53083120313C400C40B702F91
:101EE400732F08008312031388110815881408142B
:101EF4006430F3000030F400FF30F3070318F40AF1
:101F0400FF30F407730A031D7E2F740A031D7E2F0E
:101F1400831203130618902F013008008618942F9B
:101F2400023008000619982F03300800881508119C
:101F3400881408146430F3000030F400FF30F30711
:101F44000318F40AFF30F407730A031DA02F740A60
:101F5400031DA02F831203130618B22F04300800A8
:101F64008618B62F053008000619BA2F0630080067
:101F740088150815881008146430F3000030F40044
:101F8400FF30F3070318F40AFF30F407730A031D44
:101F9400C22F740A031DC22F831203130618D42FF1
:101FA400073008008618D82F083008000619DC2FDF
:101FB4000930080088150815881408106430F300E7
:101FC4000030F400FF30F3070318F40AFF30F4077D
:101FD400730A031DE42F740A031DE42F83120313F1
:101FE4000618F62F2A3008008618FA2F0030080049
:0C1FF4000619FE2F23300800FF30080003
:02400E00FB3F76
:00000001FF
